{
  "contractName": "VanMitra",
  "abi": [
    {
      "inputs": [],
      "stateMutability": "nonpayable",
      "type": "constructor"
    },
    {
      "inputs": [],
      "name": "owner",
      "outputs": [
        {
          "internalType": "address",
          "name": "",
          "type": "address"
        }
      ],
      "stateMutability": "view",
      "type": "function"
    },
    {
      "inputs": [
        {
          "internalType": "uint256",
          "name": "",
          "type": "uint256"
        }
      ],
      "name": "userAddresses",
      "outputs": [
        {
          "internalType": "address",
          "name": "",
          "type": "address"
        }
      ],
      "stateMutability": "view",
      "type": "function"
    },
    {
      "inputs": [
        {
          "internalType": "address",
          "name": "",
          "type": "address"
        }
      ],
      "name": "users",
      "outputs": [
        {
          "internalType": "uint256",
          "name": "plantsPlanted",
          "type": "uint256"
        },
        {
          "internalType": "uint256",
          "name": "healthyPlants",
          "type": "uint256"
        },
        {
          "internalType": "uint256",
          "name": "survivalRate",
          "type": "uint256"
        },
        {
          "internalType": "uint256",
          "name": "VMTs",
          "type": "uint256"
        }
      ],
      "stateMutability": "view",
      "type": "function"
    },
    {
      "inputs": [
        {
          "internalType": "address",
          "name": "user",
          "type": "address"
        },
        {
          "internalType": "uint256",
          "name": "plantsPlanted",
          "type": "uint256"
        },
        {
          "internalType": "uint256",
          "name": "healthyPlants",
          "type": "uint256"
        }
      ],
      "name": "updatePlantData",
      "outputs": [],
      "stateMutability": "nonpayable",
      "type": "function"
    },
    {
      "inputs": [],
      "name": "calculateAndDistributeRewards",
      "outputs": [],
      "stateMutability": "nonpayable",
      "type": "function"
    },
    {
      "inputs": [],
      "name": "getTop50Users",
      "outputs": [
        {
          "internalType": "address[]",
          "name": "",
          "type": "address[]"
        },
        {
          "internalType": "uint256[]",
          "name": "",
          "type": "uint256[]"
        },
        {
          "internalType": "uint256[]",
          "name": "",
          "type": "uint256[]"
        },
        {
          "internalType": "uint256[]",
          "name": "",
          "type": "uint256[]"
        },
        {
          "internalType": "uint256[]",
          "name": "",
          "type": "uint256[]"
        }
      ],
      "stateMutability": "view",
      "type": "function"
    }
  ],
  "bytecode": "0x608060405234801561000f575f80fd5b50335f806101000a81548173ffffffffffffffffffffffffffffffffffffffff021916908373ffffffffffffffffffffffffffffffffffffffff1602179055506113898061005c5f395ff3fe608060405234801561000f575f80fd5b5060043610610060575f3560e01c80634821994514610064578063502c9bd51461006e578063523dd4ec1461009e5780638da5cb5b146100c05780639b02c41e146100de578063a87430ba146100fa575b5f80fd5b61006c61012d565b005b61008860048036038101906100839190610c29565b61032e565b6040516100959190610c93565b60405180910390f35b6100a6610369565b6040516100b7959493929190610e1a565b60405180910390f35b6100c861071e565b6040516100d59190610c93565b60405180910390f35b6100f860048036038101906100f39190610eb8565b610741565b005b610114600480360381019061010f9190610f08565b610935565b6040516101249493929190610f42565b60405180910390f35b5f8054906101000a900473ffffffffffffffffffffffffffffffffffffffff1673ffffffffffffffffffffffffffffffffffffffff163373ffffffffffffffffffffffffffffffffffffffff16146101ba576040517f08c379a00000000000000000000000000000000000000000000000000000000081526004016101b190610fdf565b60405180910390fd5b5f60028054905011610201576040517f08c379a00000000000000000000000000000000000000000000000000000000081526004016101f890611047565b60405180910390fd5b610209610961565b5f5b6002805490508110801561021f5750603281105b1561032b575f6002828154811061023957610238611065565b5b905f5260205f20015f9054906101000a900473ffffffffffffffffffffffffffffffffffffffff169050600a8210156102cf5760328261027991906110bf565b6103e86102869190611100565b60015f8373ffffffffffffffffffffffffffffffffffffffff1673ffffffffffffffffffffffffffffffffffffffff1681526020019081526020015f2060030181905550610317565b6101f460015f8373ffffffffffffffffffffffffffffffffffffffff1673ffffffffffffffffffffffffffffffffffffffff1681526020019081526020015f20600301819055505b50808061032390611133565b91505061020b565b50565b6002818154811061033d575f80fd5b905f5260205f20015f915054906101000a900473ffffffffffffffffffffffffffffffffffffffff1681565b60608060608060605f60326002805490501161038a5760028054905061038d565b60325b90505f8167ffffffffffffffff8111156103aa576103a961117a565b5b6040519080825280602002602001820160405280156103d85781602001602082028036833780820191505090505b5090505f8267ffffffffffffffff8111156103f6576103f561117a565b5b6040519080825280602002602001820160405280156104245781602001602082028036833780820191505090505b5090505f8367ffffffffffffffff8111156104425761044161117a565b5b6040519080825280602002602001820160405280156104705781602001602082028036833780820191505090505b5090505f8467ffffffffffffffff81111561048e5761048d61117a565b5b6040519080825280602002602001820160405280156104bc5781602001602082028036833780820191505090505b5090505f8567ffffffffffffffff8111156104da576104d961117a565b5b6040519080825280602002602001820160405280156105085781602001602082028036833780820191505090505b5090505f5b86811015610701575f6002828154811061052a57610529611065565b5b905f5260205f20015f9054906101000a900473ffffffffffffffffffffffffffffffffffffffff1690508087838151811061056857610567611065565b5b602002602001019073ffffffffffffffffffffffffffffffffffffffff16908173ffffffffffffffffffffffffffffffffffffffff168152505060015f8273ffffffffffffffffffffffffffffffffffffffff1673ffffffffffffffffffffffffffffffffffffffff1681526020019081526020015f205f01548683815181106105f5576105f4611065565b5b60200260200101818152505060015f8273ffffffffffffffffffffffffffffffffffffffff1673ffffffffffffffffffffffffffffffffffffffff1681526020019081526020015f206001015485838151811061065557610654611065565b5b60200260200101818152505060015f8273ffffffffffffffffffffffffffffffffffffffff1673ffffffffffffffffffffffffffffffffffffffff1681526020019081526020015f20600201548483815181106106b5576106b4611065565b5b6020026020010181815250506001826106ce91906111a7565b8383815181106106e1576106e0611065565b5b6020026020010181815250505080806106f990611133565b91505061050d565b5084848484849a509a509a509a509a505050505050509091929394565b5f8054906101000a900473ffffffffffffffffffffffffffffffffffffffff1681565b5f8054906101000a900473ffffffffffffffffffffffffffffffffffffffff1673ffffffffffffffffffffffffffffffffffffffff163373ffffffffffffffffffffffffffffffffffffffff16146107ce576040517f08c379a00000000000000000000000000000000000000000000000000000000081526004016107c590610fdf565b60405180910390fd5b5f8211610810576040517f08c379a00000000000000000000000000000000000000000000000000000000081526004016108079061124a565b60405180910390fd5b81811115610853576040517f08c379a000000000000000000000000000000000000000000000000000000000815260040161084a906112d8565b60405180910390fd5b5f60015f8573ffffffffffffffffffffffffffffffffffffffff1673ffffffffffffffffffffffffffffffffffffffff1681526020019081526020015f20905082815f0181905550818160010181905550826064836108b291906110bf565b6108bc9190611323565b81600201819055505f815f01540361092f57600284908060018154018082558091505060019003905f5260205f20015f9091909190916101000a81548173ffffffffffffffffffffffffffffffffffffffff021916908373ffffffffffffffffffffffffffffffffffffffff1602179055505b50505050565b6001602052805f5260405f205f91509050805f0154908060010154908060020154908060030154905084565b5f5b60016002805490506109759190611100565b811015610bef575f60018261098a91906111a7565b90505b600280549050811015610bdb5760015f600283815481106109b1576109b0611065565b5b905f5260205f20015f9054906101000a900473ffffffffffffffffffffffffffffffffffffffff1673ffffffffffffffffffffffffffffffffffffffff1673ffffffffffffffffffffffffffffffffffffffff1681526020019081526020015f206002015460015f60028581548110610a2d57610a2c611065565b5b905f5260205f20015f9054906101000a900473ffffffffffffffffffffffffffffffffffffffff1673ffffffffffffffffffffffffffffffffffffffff1673ffffffffffffffffffffffffffffffffffffffff1681526020019081526020015f20600201541015610bc8575f60028381548110610aad57610aac611065565b5b905f5260205f20015f9054906101000a900473ffffffffffffffffffffffffffffffffffffffff16905060028281548110610aeb57610aea611065565b5b905f5260205f20015f9054906101000a900473ffffffffffffffffffffffffffffffffffffffff1660028481548110610b2757610b26611065565b5b905f5260205f20015f6101000a81548173ffffffffffffffffffffffffffffffffffffffff021916908373ffffffffffffffffffffffffffffffffffffffff1602179055508060028381548110610b8157610b80611065565b5b905f5260205f20015f6101000a81548173ffffffffffffffffffffffffffffffffffffffff021916908373ffffffffffffffffffffffffffffffffffffffff160217905550505b8080610bd390611133565b91505061098d565b508080610be790611133565b915050610963565b50565b5f80fd5b5f819050919050565b610c0881610bf6565b8114610c12575f80fd5b50565b5f81359050610c2381610bff565b92915050565b5f60208284031215610c3e57610c3d610bf2565b5b5f610c4b84828501610c15565b91505092915050565b5f73ffffffffffffffffffffffffffffffffffffffff82169050919050565b5f610c7d82610c54565b9050919050565b610c8d81610c73565b82525050565b5f602082019050610ca65f830184610c84565b92915050565b5f81519050919050565b5f82825260208201905092915050565b5f819050602082019050919050565b610cde81610c73565b82525050565b5f610cef8383610cd5565b60208301905092915050565b5f602082019050919050565b5f610d1182610cac565b610d1b8185610cb6565b9350610d2683610cc6565b805f5b83811015610d56578151610d3d8882610ce4565b9750610d4883610cfb565b925050600181019050610d29565b5085935050505092915050565b5f81519050919050565b5f82825260208201905092915050565b5f819050602082019050919050565b610d9581610bf6565b82525050565b5f610da68383610d8c565b60208301905092915050565b5f602082019050919050565b5f610dc882610d63565b610dd28185610d6d565b9350610ddd83610d7d565b805f5b83811015610e0d578151610df48882610d9b565b9750610dff83610db2565b925050600181019050610de0565b5085935050505092915050565b5f60a0820190508181035f830152610e328188610d07565b90508181036020830152610e468187610dbe565b90508181036040830152610e5a8186610dbe565b90508181036060830152610e6e8185610dbe565b90508181036080830152610e828184610dbe565b90509695505050505050565b610e9781610c73565b8114610ea1575f80fd5b50565b5f81359050610eb281610e8e565b92915050565b5f805f60608486031215610ecf57610ece610bf2565b5b5f610edc86828701610ea4565b9350506020610eed86828701610c15565b9250506040610efe86828701610c15565b9150509250925092565b5f60208284031215610f1d57610f1c610bf2565b5b5f610f2a84828501610ea4565b91505092915050565b610f3c81610bf6565b82525050565b5f608082019050610f555f830187610f33565b610f626020830186610f33565b610f6f6040830185610f33565b610f7c6060830184610f33565b95945050505050565b5f82825260208201905092915050565b7f4e6f7420617574686f72697a65640000000000000000000000000000000000005f82015250565b5f610fc9600e83610f85565b9150610fd482610f95565b602082019050919050565b5f6020820190508181035f830152610ff681610fbd565b9050919050565b7f4e6f20757365727320617661696c61626c6500000000000000000000000000005f82015250565b5f611031601283610f85565b915061103c82610ffd565b602082019050919050565b5f6020820190508181035f83015261105e81611025565b9050919050565b7f4e487b71000000000000000000000000000000000000000000000000000000005f52603260045260245ffd5b7f4e487b71000000000000000000000000000000000000000000000000000000005f52601160045260245ffd5b5f6110c982610bf6565b91506110d483610bf6565b92508282026110e281610bf6565b915082820484148315176110f9576110f8611092565b5b5092915050565b5f61110a82610bf6565b915061111583610bf6565b925082820390508181111561112d5761112c611092565b5b92915050565b5f61113d82610bf6565b91507fffffffffffffffffffffffffffffffffffffffffffffffffffffffffffffffff820361116f5761116e611092565b5b600182019050919050565b7f4e487b71000000000000000000000000000000000000000000000000000000005f52604160045260245ffd5b5f6111b182610bf6565b91506111bc83610bf6565b92508282019050808211156111d4576111d3611092565b5b92915050565b7f506c616e747320706c616e746564206d757374206265206772656174657220745f8201527f68616e207a65726f000000000000000000000000000000000000000000000000602082015250565b5f611234602883610f85565b915061123f826111da565b604082019050919050565b5f6020820190508181035f83015261126181611228565b9050919050565b7f4865616c74687920706c616e74732063616e6e6f742065786365656420706c615f8201527f6e747320706c616e746564000000000000000000000000000000000000000000602082015250565b5f6112c2602b83610f85565b91506112cd82611268565b604082019050919050565b5f6020820190508181035f8301526112ef816112b6565b9050919050565b7f4e487b71000000000000000000000000000000000000000000000000000000005f52601260045260245ffd5b5f61132d82610bf6565b915061133883610bf6565b925082611348576113476112f6565b5b82820490509291505056fea2646970667358221220f8320487986731952d49c56c332d8d2f22acc22c7decbda9a4333adb52d2d57a64736f6c63430008150033",
  "immutableReferences": {},
  "source": "// SPDX-License-Identifier: MIT\r\npragma solidity ^0.8.0;\r\n\r\ncontract VanMitra {\r\n\r\n    struct User {\r\n        uint256 plantsPlanted;\r\n        uint256 healthyPlants;\r\n        uint256 survivalRate;\r\n        uint256 VMTs;\r\n    }\r\n\r\n    address public owner;\r\n    mapping(address => User) public users;\r\n    address[] public userAddresses;\r\n\r\n    constructor() {\r\n        owner = msg.sender;\r\n    }\r\n\r\n    modifier onlyOwner() {\r\n        require(msg.sender == owner, \"Not authorized\");\r\n        _;\r\n    }\r\n\r\n    function updatePlantData(address user, uint256 plantsPlanted, uint256 healthyPlants) public onlyOwner {\r\n        require(plantsPlanted > 0, \"Plants planted must be greater than zero\");\r\n        require(healthyPlants <= plantsPlanted, \"Healthy plants cannot exceed plants planted\");\r\n\r\n        User storage u = users[user];\r\n        u.plantsPlanted = plantsPlanted;\r\n        u.healthyPlants = healthyPlants;\r\n\r\n        u.survivalRate = (healthyPlants * 100) / plantsPlanted;\r\n\r\n        if (u.plantsPlanted == 0) {\r\n            userAddresses.push(user);\r\n        }\r\n    }\r\n\r\n    function calculateAndDistributeRewards() public onlyOwner {\r\n        require(userAddresses.length > 0, \"No users available\");\r\n        _sortUsersBySurvivalRate();\r\n\r\n        for (uint256 i = 0; i < userAddresses.length && i < 50; i++) {\r\n            address user = userAddresses[i];\r\n            if (i < 10) {\r\n                users[user].VMTs = 1000 - (i * 50);\r\n            } else {\r\n                users[user].VMTs = 500;\r\n            }\r\n        }\r\n    }\r\n\r\n    function _sortUsersBySurvivalRate() internal {\r\n        for (uint256 i = 0; i < userAddresses.length - 1; i++) {\r\n            for (uint256 j = i + 1; j < userAddresses.length; j++) {\r\n                if (users[userAddresses[i]].survivalRate < users[userAddresses[j]].survivalRate) {\r\n                    address temp = userAddresses[i];\r\n                    userAddresses[i] = userAddresses[j];\r\n                    userAddresses[j] = temp;\r\n                }\r\n            }\r\n        }\r\n    }\r\n\r\n    function getTop50Users() public view returns (address[] memory, uint256[] memory, uint256[] memory, uint256[] memory, uint256[] memory) {\r\n        uint256 topCount = userAddresses.length > 50 ? 50 : userAddresses.length;\r\n        address[] memory topUsers = new address[](topCount);\r\n        uint256[] memory plantsPlanted = new uint256[](topCount);\r\n        uint256[] memory healthyPlants = new uint256[](topCount);\r\n        uint256[] memory survivalRates = new uint256[](topCount);\r\n        uint256[] memory rankings = new uint256[](topCount);\r\n\r\n        for (uint256 i = 0; i < topCount; i++) {\r\n            address user = userAddresses[i];\r\n            topUsers[i] = user;\r\n            plantsPlanted[i] = users[user].plantsPlanted;\r\n            healthyPlants[i] = users[user].healthyPlants;\r\n            survivalRates[i] = users[user].survivalRate;\r\n            rankings[i] = i + 1;\r\n        }\r\n        return (topUsers, plantsPlanted, healthyPlants, survivalRates, rankings);\r\n    }\r\n}\r\n",
  "sourcePath": "C:\\Users\\vardh\\VanMitraProject\\contracts\\VanMitra.sol",
  "compiler": {
    "name": "solc",
    "version": "0.8.21+commit.d9974bed.Emscripten.clang"
  },
  "schemaVersion": "3.4.16",
  "updatedAt": "2024-11-14T18:48:27.105Z",
  "devdoc": {
    "kind": "dev",
    "methods": {},
    "version": 1
  },
  "userdoc": {
    "kind": "user",
    "methods": {},
    "version": 1
  }
}