{
  "contractName": "VMTReward",
  "abi": [
    {
      "anonymous": false,
      "inputs": [
        {
          "indexed": false,
          "internalType": "uint256",
          "name": "userID",
          "type": "uint256"
        },
        {
          "indexed": false,
          "internalType": "uint256",
          "name": "tokensRedeemed",
          "type": "uint256"
        },
        {
          "indexed": false,
          "internalType": "uint256",
          "name": "saplingsRedeemed",
          "type": "uint256"
        }
      ],
      "name": "TokensRedeemed",
      "type": "event"
    },
    {
      "inputs": [],
      "name": "totalUsers",
      "outputs": [
        {
          "internalType": "uint256",
          "name": "",
          "type": "uint256"
        }
      ],
      "stateMutability": "view",
      "type": "function"
    },
    {
      "inputs": [
        {
          "internalType": "uint256",
          "name": "",
          "type": "uint256"
        }
      ],
      "name": "users",
      "outputs": [
        {
          "internalType": "uint256",
          "name": "userID",
          "type": "uint256"
        },
        {
          "internalType": "uint256",
          "name": "plantsPlanted",
          "type": "uint256"
        },
        {
          "internalType": "uint256",
          "name": "tokensRewarded",
          "type": "uint256"
        }
      ],
      "stateMutability": "view",
      "type": "function"
    },
    {
      "inputs": [
        {
          "internalType": "uint256[]",
          "name": "userIDs",
          "type": "uint256[]"
        },
        {
          "internalType": "uint256[]",
          "name": "ranks",
          "type": "uint256[]"
        }
      ],
      "name": "rewardUsers",
      "outputs": [],
      "stateMutability": "nonpayable",
      "type": "function"
    },
    {
      "inputs": [
        {
          "internalType": "uint256",
          "name": "userID",
          "type": "uint256"
        },
        {
          "internalType": "uint256",
          "name": "plantsPlanted",
          "type": "uint256"
        }
      ],
      "name": "setPlantsPlanted",
      "outputs": [],
      "stateMutability": "nonpayable",
      "type": "function"
    },
    {
      "inputs": [
        {
          "internalType": "uint256",
          "name": "userID",
          "type": "uint256"
        },
        {
          "internalType": "uint256",
          "name": "tokensToRedeem",
          "type": "uint256"
        }
      ],
      "name": "redeemTokens",
      "outputs": [
        {
          "internalType": "uint256",
          "name": "saplingsRedeemed",
          "type": "uint256"
        }
      ],
      "stateMutability": "nonpayable",
      "type": "function"
    },
    {
      "inputs": [
        {
          "internalType": "uint256",
          "name": "userID",
          "type": "uint256"
        }
      ],
      "name": "getRemainingTokens",
      "outputs": [
        {
          "internalType": "uint256",
          "name": "",
          "type": "uint256"
        }
      ],
      "stateMutability": "view",
      "type": "function"
    },
    {
      "inputs": [
        {
          "internalType": "uint256",
          "name": "userID",
          "type": "uint256"
        }
      ],
      "name": "checkEligibility",
      "outputs": [
        {
          "internalType": "bool",
          "name": "",
          "type": "bool"
        }
      ],
      "stateMutability": "view",
      "type": "function"
    }
  ],
  "bytecode": "0x608060405234801561000f575f80fd5b50610ca88061001d5f395ff3fe608060405234801561000f575f80fd5b506004361061007b575f3560e01c80637b39fed6116100595780637b39fed6146100fd5780639929ede41461012d578063bff1f9e11461015d578063e909d7b11461017b5761007b565b8063116453721461007f57806320adacc91461009b578063365b98b2146100cb575b5f80fd5b61009960048036038101906100949190610795565b610197565b005b6100b560048036038101906100b0919061080b565b610293565b6040516100c29190610845565b60405180910390f35b6100e560048036038101906100e0919061080b565b610303565b6040516100f49392919061085e565b60405180910390f35b6101176004803603810190610112919061080b565b610328565b60405161012491906108ad565b60405180910390f35b610147600480360381019061014291906108c6565b61039c565b6040516101549190610845565b60405180910390f35b61016561051c565b6040516101729190610845565b60405180910390f35b610195600480360381019061019091906108c6565b610522565b005b80518251146101db576040517f08c379a00000000000000000000000000000000000000000000000000000000081526004016101d290610984565b60405180910390fd5b5f5b825181101561028e575f8382815181106101fa576101f96109a2565b5b602002602001015190505f838381518110610218576102176109a2565b5b602002602001015190505f61022c82610592565b905060405180606001604052808481526020015f8152602001828152505f808581526020019081526020015f205f820151815f015560208201518160010155604082015181600201559050505050508080610286906109fc565b9150506101dd565b505050565b5f805f808481526020019081526020015f205f0154036102e8576040517f08c379a00000000000000000000000000000000000000000000000000000000081526004016102df90610a8d565b60405180910390fd5b5f808381526020019081526020015f20600201549050919050565b5f602052805f5260405f205f91509050805f0154908060010154908060020154905083565b5f805f808481526020019081526020015f205f01540361037d576040517f08c379a000000000000000000000000000000000000000000000000000000000815260040161037490610a8d565b60405180910390fd5b6103e85f808481526020019081526020015f2060010154149050919050565b5f805f808581526020019081526020015f205f0154036103f1576040517f08c379a00000000000000000000000000000000000000000000000000000000081526004016103e890610a8d565b60405180910390fd5b6103e85f808581526020019081526020015f206001015414610448576040517f08c379a000000000000000000000000000000000000000000000000000000000815260040161043f90610b1b565b60405180910390fd5b5f805f8581526020019081526020015f20600201549050808311156104a2576040517f08c379a000000000000000000000000000000000000000000000000000000000815260040161049990610b83565b60405180910390fd5b600a836104af9190610bce565b9150825f808681526020019081526020015f206002015f8282546104d39190610bfe565b925050819055507fded7d0a2321e67d1eac995ad487ab376937566b0f08593b97e9abd401dfebc2584848460405161050d9392919061085e565b60405180910390a15092915050565b60015481565b5f805f8481526020019081526020015f205f015403610576576040517f08c379a000000000000000000000000000000000000000000000000000000000815260040161056d90610a8d565b60405180910390fd5b805f808481526020019081526020015f20600101819055505050565b5f600182101580156105a55750600a8211155b156105d75760326001836105b99190610bfe565b6105c39190610c31565b6103e86105d09190610bfe565b90506105fc565b600b82101580156105e9575060328211155b156105f8576101f490506105fc565b5f90505b919050565b5f604051905090565b5f80fd5b5f80fd5b5f80fd5b5f601f19601f8301169050919050565b7f4e487b71000000000000000000000000000000000000000000000000000000005f52604160045260245ffd5b61065c82610616565b810181811067ffffffffffffffff8211171561067b5761067a610626565b5b80604052505050565b5f61068d610601565b90506106998282610653565b919050565b5f67ffffffffffffffff8211156106b8576106b7610626565b5b602082029050602081019050919050565b5f80fd5b5f819050919050565b6106df816106cd565b81146106e9575f80fd5b50565b5f813590506106fa816106d6565b92915050565b5f61071261070d8461069e565b610684565b90508083825260208201905060208402830185811115610735576107346106c9565b5b835b8181101561075e578061074a88826106ec565b845260208401935050602081019050610737565b5050509392505050565b5f82601f83011261077c5761077b610612565b5b813561078c848260208601610700565b91505092915050565b5f80604083850312156107ab576107aa61060a565b5b5f83013567ffffffffffffffff8111156107c8576107c761060e565b5b6107d485828601610768565b925050602083013567ffffffffffffffff8111156107f5576107f461060e565b5b61080185828601610768565b9150509250929050565b5f602082840312156108205761081f61060a565b5b5f61082d848285016106ec565b91505092915050565b61083f816106cd565b82525050565b5f6020820190506108585f830184610836565b92915050565b5f6060820190506108715f830186610836565b61087e6020830185610836565b61088b6040830184610836565b949350505050565b5f8115159050919050565b6108a781610893565b82525050565b5f6020820190506108c05f83018461089e565b92915050565b5f80604083850312156108dc576108db61060a565b5b5f6108e9858286016106ec565b92505060206108fa858286016106ec565b9150509250929050565b5f82825260208201905092915050565b7f4d69736d6174636820696e20746865206c656e677468206f66207573657220495f8201527f447320616e642072616e6b730000000000000000000000000000000000000000602082015250565b5f61096e602c83610904565b915061097982610914565b604082019050919050565b5f6020820190508181035f83015261099b81610962565b9050919050565b7f4e487b71000000000000000000000000000000000000000000000000000000005f52603260045260245ffd5b7f4e487b71000000000000000000000000000000000000000000000000000000005f52601160045260245ffd5b5f610a06826106cd565b91507fffffffffffffffffffffffffffffffffffffffffffffffffffffffffffffffff8203610a3857610a376109cf565b5b600182019050919050565b7f5573657220646f6573206e6f74206578697374000000000000000000000000005f82015250565b5f610a77601383610904565b9150610a8282610a43565b602082019050919050565b5f6020820190508181035f830152610aa481610a6b565b9050919050565b7f55736572206973206e6f7420656c696769626c6520666f7220726564656d70745f8201527f696f6e0000000000000000000000000000000000000000000000000000000000602082015250565b5f610b05602383610904565b9150610b1082610aab565b604082019050919050565b5f6020820190508181035f830152610b3281610af9565b9050919050565b7f496e73756666696369656e7420746f6b656e73000000000000000000000000005f82015250565b5f610b6d601383610904565b9150610b7882610b39565b602082019050919050565b5f6020820190508181035f830152610b9a81610b61565b9050919050565b7f4e487b71000000000000000000000000000000000000000000000000000000005f52601260045260245ffd5b5f610bd8826106cd565b9150610be3836106cd565b925082610bf357610bf2610ba1565b5b828204905092915050565b5f610c08826106cd565b9150610c13836106cd565b9250828203905081811115610c2b57610c2a6109cf565b5b92915050565b5f610c3b826106cd565b9150610c46836106cd565b9250828202610c54816106cd565b91508282048414831517610c6b57610c6a6109cf565b5b509291505056fea2646970667358221220f0a86ae2e1166b7984c7f0b36eb477fc34038e0473cb9a6876a42ed83ea6975f64736f6c63430008150033",
  "immutableReferences": {},
  "source": "// SPDX-License-Identifier: MIT\r\npragma solidity ^0.8.21;\r\n\r\ncontract VMTReward {\r\n\r\n    struct User {\r\n        uint256 userID;\r\n        uint256 plantsPlanted;\r\n        uint256 tokensRewarded;\r\n    }\r\n\r\n    mapping(uint256 => User) public users;\r\n    uint256 public totalUsers;\r\n\r\n    event TokensRedeemed(uint256 userID, uint256 tokensRedeemed, uint256 saplingsRedeemed);\r\n\r\n    // Function to reward users based on their rank\r\n    function rewardUsers(uint256[] memory userIDs, uint256[] memory ranks) public {\r\n        require(userIDs.length == ranks.length, \"Mismatch in the length of user IDs and ranks\");\r\n\r\n        for (uint256 i = 0; i < userIDs.length; i++) {\r\n            uint256 userID = userIDs[i];\r\n            uint256 rank = ranks[i];\r\n            \r\n            uint256 rewardTokens = calculateRewardTokens(rank);\r\n            users[userID] = User({\r\n                userID: userID,\r\n                plantsPlanted: 0, // Initially set to 0, to be updated by the user when they plant trees\r\n                tokensRewarded: rewardTokens\r\n            });\r\n        }\r\n    }\r\n\r\n    // Function to calculate reward tokens based on rank\r\n    function calculateRewardTokens(uint256 rank) private pure returns (uint256) {\r\n        if (rank >= 1 && rank <= 10) {\r\n            return 1000 - (rank - 1) * 50;  // First 10 ranks get decreasing rewards\r\n        } else if (rank >= 11 && rank <= 50) {\r\n            return 500;  // Ranks from 11th to 50th get 500 tokens\r\n        }\r\n        return 0;\r\n    }\r\n\r\n    // Function to set the number of plants planted for a user (to be called by the user or admin)\r\n    function setPlantsPlanted(uint256 userID, uint256 plantsPlanted) public {\r\n        require(users[userID].userID != 0, \"User does not exist\");\r\n        users[userID].plantsPlanted = plantsPlanted;\r\n    }\r\n\r\n    // Function to redeem tokens\r\n    function redeemTokens(uint256 userID, uint256 tokensToRedeem) public returns (uint256 saplingsRedeemed) {\r\n        require(users[userID].userID != 0, \"User does not exist\");\r\n        require(users[userID].plantsPlanted == 1000, \"User is not eligible for redemption\");\r\n\r\n        uint256 availableTokens = users[userID].tokensRewarded;\r\n        require(tokensToRedeem <= availableTokens, \"Insufficient tokens\");\r\n\r\n        // Redeem tokens, 1 sapling for every 10 tokens\r\n        saplingsRedeemed = tokensToRedeem / 10;\r\n\r\n        // Update the user's redeemed tokens\r\n        users[userID].tokensRewarded -= tokensToRedeem;\r\n\r\n        emit TokensRedeemed(userID, tokensToRedeem, saplingsRedeemed);\r\n    }\r\n\r\n    // Function to get the remaining tokens of a user\r\n    function getRemainingTokens(uint256 userID) public view returns (uint256) {\r\n        require(users[userID].userID != 0, \"User does not exist\");\r\n        return users[userID].tokensRewarded;\r\n    }\r\n\r\n    // Function to check if a user is eligible for redemption\r\n    function checkEligibility(uint256 userID) public view returns (bool) {\r\n        require(users[userID].userID != 0, \"User does not exist\");\r\n        return users[userID].plantsPlanted == 1000;\r\n    }\r\n\r\n}\r\n",
  "sourcePath": "C:\\Users\\vardh\\Rewards\\contracts\\VMTReward.sol",
  "compiler": {
    "name": "solc",
    "version": "0.8.21+commit.d9974bed.Emscripten.clang"
  },
  "schemaVersion": "3.4.16",
  "updatedAt": "2024-11-14T19:38:59.065Z",
  "devdoc": {
    "kind": "dev",
    "methods": {},
    "version": 1
  },
  "userdoc": {
    "kind": "user",
    "methods": {},
    "version": 1
  }
}